:100000000C942A000C948D030C9447000C94470028
:100010000C9447000C9447000C9447000C94470044
:100020000C9447000C9447000C9447000C94E30395
:100030000C9447000C9447000C9447000C94470024
:100040000C9447000C9447000C9447000C94470014
:100050000C94470011241FBECFE5D8E0DEBFCDBF12
:1000600010E0A0E6B0E0E8E2F0E102C005900D92F9
:10007000A836B107D9F710E0A8E6B0E001C01D929C
:10008000AC36B107E1F70E94A1040C9412080C945D
:100090000000DF93CF93CDB7DEB7A7E2B0E0E7E291
:1000A000F0E0808180648C93A7E2B0E0E7E2F0E0CA
:1000B000808180628C93A6E2B0E0E6E2F0E080818D
:1000C00080688C93CF91DF910895DF93CF93CDB764
:1000D000DEB7A6E2B0E0E6E2F0E0808180648C93D7
:1000E000E6E2F0E0808182958F70882F90E0817049
:1000F00090700097A9F3A6E2B0E0E6E2F0E080811C
:1001000080618C93E5E2F0E08081CF91DF910895EA
:10011000DF93CF9300D000D0CDB7DEB789836A8359
:100120008981282F30E03C832B838B819C81813017
:100130009105D1F02B813C81223031052CF48B814B
:100140009C81009761F01EC02B813C8122303105DB
:1001500081F08B819C818330910581F013C0EAE3AB
:10016000F0E08A8180830EC0E7E3F0E08A8180833B
:1001700009C0E4E3F0E08A81808304C0E1E3F0E0B9
:100180008A8180830F900F900F900F90CF91DF9115
:100190000895DF93CF9300D000D0CDB7DEB7898329
:1001A0006A838981282F30E03C832B838B819C815B
:1001B00081309105D1F02B813C81223031052CF426
:1001C0008B819C81009761F01EC02B813C81223085
:1001D000310581F08B819C818330910581F013C0C2
:1001E000EBE3F0E08A8180830EC0E8E3F0E08A81EF
:1001F000808309C0E5E3F0E08A81808304C0E2E304
:10020000F0E08A8180830F900F900F900F90CF9134
:10021000DF910895DF93CF9300D000D00F92CDB738
:10022000DEB789836A834B838981282F30E03D8341
:100230002C838C819D818130910509F443C02C81F0
:100240003D81223031052CF48C819D81009771F025
:10025000BCC02C813D812230310509F45FC08C8106
:100260009D818330910509F485C0AFC08B818130B9
:10027000A1F4AAE3B0E0EAE3F0E08081482F8A81AC
:10028000282F30E081E090E0022E02C0880F991FF5
:100290000A94E2F7842B8C9398C0AAE3B0E0EAE3D7
:1002A000F0E08081482F8A81282F30E081E090E0C3
:1002B000022E02C0880F991F0A94E2F780958423CA
:1002C0008C9383C08B818130A1F4A7E3B0E0E7E396
:1002D000F0E08081482F8A81282F30E081E090E093
:1002E000022E02C0880F991F0A94E2F7842B8C9388
:1002F0006CC0A7E3B0E0E7E3F0E08081482F8A819B
:10030000282F30E081E090E0022E02C0880F991F74
:100310000A94E2F7809584238C9357C08B818130B7
:10032000A1F4A4E3B0E0E4E3F0E08081482F8A8107
:10033000282F30E081E090E0022E02C0880F991F44
:100340000A94E2F7842B8C9340C0A4E3B0E0E4E38A
:10035000F0E08081482F8A81282F30E081E090E012
:10036000022E02C0880F991F0A94E2F78095842319
:100370008C932BC08B818130A1F4A1E3B0E0E1E349
:10038000F0E08081482F8A81282F30E081E090E0E2
:10039000022E02C0880F991F0A94E2F7842B8C93D7
:1003A00014C0A1E3B0E0E1E3F0E08081482F8A814E
:1003B000282F30E081E090E0022E02C0880F991FC4
:1003C0000A94E2F7809584238C930F900F900F90FE
:1003D0000F900F90CF91DF910895DF93CF9300D0CE
:1003E00000D00F92CDB7DEB789836A834B838981B2
:1003F000282F30E03D832C838C819D8181309105B5
:1004000009F443C02C813D81223031052CF48C81CC
:100410009D81009771F0BCC02C813D812230310557
:1004200009F45FC08C819D818330910509F485C0FA
:10043000AFC08B818130A1F4ABE3B0E0EBE3F0E03F
:100440008081482F8A81282F30E081E090E0022EC1
:1004500002C0880F991F0A94E2F7842B8C9398C0EE
:10046000ABE3B0E0EBE3F0E08081482F8A81282FF6
:1004700030E081E090E0022E02C0880F991F0A94BC
:10048000E2F7809584238C9383C08B818130A1F423
:10049000A8E3B0E0E8E3F0E08081482F8A81282FCC
:1004A00030E081E090E0022E02C0880F991F0A948C
:1004B000E2F7842B8C936CC0A8E3B0E0E8E3F0E0B3
:1004C0008081482F8A81282F30E081E090E0022E41
:1004D00002C0880F991F0A94E2F7809584238C93B9
:1004E00057C08B818130A1F4A5E3B0E0E5E3F0E0F3
:1004F0008081482F8A81282F30E081E090E0022E11
:1005000002C0880F991F0A94E2F7842B8C9340C095
:10051000A5E3B0E0E5E3F0E08081482F8A81282F51
:1005200030E081E090E0022E02C0880F991F0A940B
:10053000E2F7809584238C932BC08B818130A1F4CA
:10054000A2E3B0E0E2E3F0E08081482F8A81282F27
:1005500030E081E090E0022E02C0880F991F0A94DB
:10056000E2F7842B8C9314C0A2E3B0E0E2E3F0E066
:100570008081482F8A81282F30E081E090E0022E90
:1005800002C0880F991F0A94E2F7809584238C9308
:100590000F900F900F900F900F90CF91DF910895D3
:1005A000DF93CF9300D000D0CDB7DEB78A838A81A6
:1005B000282F30E03C832B838B819C8181309105F7
:1005C000D1F02B813C81223031052CF48B819C8130
:1005D000009761F01EC02B813C812230310581F0F3
:1005E0008B819C818330910581F013C0E9E3F0E0B9
:1005F000808189830EC0E6E3F0E08081898309C0B1
:10060000E3E3F0E08081898304C0E0E3F0E08081EF
:10061000898389810F900F900F900F90CF91DF9178
:100620000895DF93CF9300D000D000D0CDB7DEB7D0
:100630008B836C838C8189838B81282F30E03E8370
:100640002D834D815E814130510541F18D819E8127
:100650008230910534F42D813E812115310561F000
:1006600052C04D815E814230510551F18D819E8194
:1006700083309105B9F147C0E9E3F0E08081282F8C
:1006800030E08981882F90E0A90102C055954795F7
:100690008A95E2F7CA0181708A8335C0E6E3F0E00B
:1006A0008081282F30E08981882F90E0A90102C045
:1006B000559547958A95E2F7CA0181708A8323C0D0
:1006C000E3E3F0E08081282F30E08981882F90E0FB
:1006D000A90102C0559547958A95E2F7CA01817034
:1006E0008A8311C0E0E3F0E08081282F30E0898127
:1006F000882F90E0A90102C0559547958A95E2F7A9
:10070000CA0181708A838A8126960FB6F894DEBF6B
:100710000FBECDBFCF91DF9108951F920F920FB6FC
:100720000F9211242F933F934F935F936F937F9377
:100730008F939F93AF93BF93EF93FF93DF93CF93E9
:10074000CDB7DEB781E060E041E00E94ED010E949C
:10075000B40480E690E00E941105CF91DF91FF91F3
:10076000EF91BF91AF919F918F917F916F915F9129
:100770004F913F912F910F900FBE0F901F901895A2
:10078000DF93CF93CDB7DEB7AFE5B0E0EFE5F0E0B4
:10079000808180688C93ABE5B0E0EBE5F0E0808190
:1007A00080648C93A5E5B0E0E5E5F0E080818E7F84
:1007B0008C93A5E5B0E0E5E5F0E0808182608C9364
:1007C000CF91DF9108951F920F920FB60F921124CF
:1007D0002F933F934F935F936F937F938F939F9349
:1007E000AF93BF93EF93FF93DF93CF93CDB7DEB774
:1007F000E697DEBFCDBF8091680090916900A0911F
:100800006A00B0916B000196A11DB11D8093680034
:1008100090936900A0936A00B0936B008091680088
:1008200090916900A0916A00B0916B00813525E23A
:10083000920722E0A20720E0B20709F050C00E9410
:1008400049000E94B4040E9465008A838A81282F8F
:1008500030E084EF91E0AC01249FC001259F900D12
:10086000349F900D11249EAB8DAB8DA99EA9992329
:1008700034F42DA93EA921503F4F3EAB2DAB4DA9DD
:100880005EA9852F992787FD9A9589838981282FCD
:1008900030E000D000D000D0EDB7FEB73196CE01E9
:1008A00003969183808385E690E0938382833583EA
:1008B00024830E943A058DB79EB706960FB6F8942A
:1008C0009EBF0FBE8DBFCE0103960E9411051092F0
:1008D00068001092690010926A0010926B00E69610
:1008E000DEBFCDBFCF91DF91FF91EF91BF91AF916F
:1008F0009F918F917F916F915F914F913F912F9138
:100900000F900FBE0F901F901895DF93CF93CDB728
:10091000DEB7AFE5B0E0EFE5F0E0808180688C9372
:10092000A3E5B0E0E3E5F0E0808181608C93A9E588
:10093000B0E0E9E5F0E0808181608C93CF91DF91B8
:100940000895DF93CF93CDB7DEB70E94C0030E9416
:10095000850483E062E041E00E94ED0181E060E017
:1009600041E00E940A01FFCFDF93CF93CDB7DEB7FE
:1009700083E060E040E00E940A0183E060E041E043
:100980000E940A01AAE2B0E0EAE2F0E08081886019
:100990008C93AAE2B0E0EAE2F0E0808180618C937F
:1009A000A0E4B0E0E0E4F0E0808182608C93A0E419
:1009B000B0E0E0E4F0E0808184608C93E9E2F0E074
:1009C0008DE48083E0E4F0E01082CF91DF91089520
:1009D000DF93CF930F92CDB7DEB78983EBE2F0E0E0
:1009E0008081829586958770882F90E081709070C5
:1009F0000097A1F3ECE2F0E0898180830F90CF9122
:100A0000DF910895DF93CF93CDB7DEB7EBE2F0E04F
:100A100080818823DCF7ECE2F0E08081CF91DF91E8
:100A20000895DF93CF9300D00F92CDB7DEB79B83AD
:100A30008A8319820EC08981282F30E08A819B81A8
:100A4000FC01E20FF31F80810E94E80489818F5F1F
:100A500089838981282F30E08A819B81FC01E20F04
:100A6000F31F8081882339F70F900F900F90CF915B
:100A7000DF910895AEE0B0E0E0E4F5E00C94E90722
:100A80000D891E8986E08C831A8309838FEF9FE787
:100A90009E838D839E01275E3F4FCE0101966F8915
:100AA000788DA9010E945E052F813885020F131FE2
:100AB000F80110822E96E4E00C940508ABE0B0E05B
:100AC000E4E6F5E00C94DB073C012B015A01FC0144
:100AD00017821682838181FD03C06FEF7FEFC6C14D
:100AE0009AE0892E1E010894211C311CF3012381F8
:100AF000F20123FD859123FF81912F01882309F4C1
:100B0000B2C1853239F423FD859123FF81912F01F4
:100B1000853229F490E0B3010E945107E7CF982F66
:100B2000FF24EE249924FFE1FF15D0F09B3269F0F9
:100B30009C3228F4903259F0933291F40EC09D32D9
:100B400049F0903369F441E024C052E0F52A84E092
:100B5000F82A28C098E0F92A25C0E0E1FE2A22C040
:100B6000F7FC29C0892F80538A3070F4F6FE05C047
:100B7000989C902C1124980E15C0E89CE02C112410
:100B8000E80EF0E2FF2A0EC09E3229F4F6FC6BC19B
:100B900040E4F42A07C09C3619F450E8F52A02C054
:100BA000983649F4F20123FD959123FF91912F018D
:100BB000992309F0B8CF892F8554833018F08052DB
:100BC000833038F444E050E0A40EB51E5FE359834F
:100BD0000FC0933631F0933779F0933509F056C052
:100BE00020C0F5018081898342E050E0A40EB51E4B
:100BF000610101E010E012C0F501C080D180F6FC77
:100C000003C06FEF7FEF02C0692D70E042E050E05B
:100C1000A40EB51EC6010E9446078C015FE7F522AF
:100C200014C0F501C080D180F6FC03C06FEF7FEFE8
:100C300002C0692D70E042E050E0A40EB51EC6016E
:100C40000E943B078C0150E8F52AF3FE07C01AC04A
:100C500080E290E0B3010E945107EA948E2D90E06B
:100C600008171907A8F30EC0F601F7FC8591F7FEE7
:100C700081916F0190E0B3010E945107E110EA9465
:100C8000015010400115110579F7EAC0943611F0B2
:100C9000993669F5F7FE08C0F5012081318142815E
:100CA000538184E090E00AC0F501808191819C012C
:100CB000442737FD4095542F82E090E0A80EB91EDE
:100CC0009FE6F92257FF09C0509540953095219530
:100CD0003F4F4F4F5F4FE0E8FE2ACA01B901A10123
:100CE0002AE030E00E947D07D82ED21840C0953708
:100CF00029F41F2D1F7E2AE030E01DC01F2D197F13
:100D00009F3661F0903720F4983509F0ACC00FC0E1
:100D1000903739F0983709F0A6C004C028E030E0D9
:100D20000AC0106114FD146020E130E004C014FD1D
:100D3000166020E132E017FF08C0F5016081718183
:100D40008281938144E050E008C0F5018081918167
:100D5000BC0180E090E042E050E0A40EB51EA1018D
:100D60000E947D07D82ED2188FE7F82EF122F6FECA
:100D70000BC05EEFF522D91438F4F4FE07C0F2FC84
:100D800005C08FEEF82202C01D2D01C0192DF4FE02
:100D90000DC0FE01ED0DF11D8081803319F499EE37
:100DA000F92208C01F5FF2FE05C003C08F2D8678B0
:100DB00009F01F5F0F2DF3FC14C0F0FE0FC01E15CD
:100DC00010F09D2C0BC09D2C9E0C911A1E2D06C060
:100DD00080E290E0B3010E9451071F5F1E15C0F32F
:100DE00004C01E1510F4E11A01C0EE2404FF0FC068
:100DF00080E390E0B3010E94510702FF1DC001FD96
:100E000003C088E790E00EC088E590E00BC0802F1B
:100E1000867891F001FF02C08BE201C080E2F7FC0E
:100E20008DE290E0B3010E94510706C080E390E09C
:100E3000B3010E9451079A94D914C0F3DA94F101D6
:100E4000ED0DF11D808190E0B3010E945107DD207E
:100E5000A9F706C080E290E0B3010E945107EA942E
:100E6000EE20C1F743CEF30166817781CB012B964B
:100E7000E2E10C94F707FC0105906150704001100D
:100E8000D8F7809590958E0F9F1F0895FC016150B3
:100E9000704001900110D8F7809590958E0F9F1F9C
:100EA00008950F931F93CF93DF938C01EB018B81F8
:100EB00081FF1BC082FF0DC02E813F818C819D81EF
:100EC0002817390764F4E881F9810193F983E883ED
:100ED00006C0E885F985802F0995892B31F48E812C
:100EE0009F8101969F838E8302C00FEF1FEFC80181
:100EF000DF91CF911F910F910895FA01AA27283011
:100F000051F1203181F1E8946F936E7F6E5F7F4FD6
:100F10008F4F9F4FAF4FB1E03ED0B4E03CD0670F52
:100F2000781F891F9A1FA11D680F791F8A1F911DA5
:100F3000A11D6A0F711D811D911DA11D20D009F4F5
:100F400068943F912AE0269F11243019305D319337
:100F5000DEF6CF010895462F4770405D4193B3E020
:100F60000FD0C9F7F6CF462F4F70405D4A3318F0C7
:100F7000495D31FD4052419302D0A9F7EACFB4E078
:100F8000A6959795879577956795BA95C9F7009730
:100F90006105710508959B01AC010A2E06945795D1
:100FA000479537952795BA95C9F7620F731F841F28
:100FB000951FA01D08952F923F924F925F926F92BE
:100FC0007F928F929F92AF92BF92CF92DF92EF92D9
:100FD000FF920F931F93CF93DF93CDB7DEB7CA1B5A
:100FE000DB0B0FB6F894DEBF0FBECDBF09942A8885
:100FF000398848885F846E847D848C849B84AA842D
:10100000B984C884DF80EE80FD800C811B81AA81B9
:10101000B981CE0FD11D0FB6F894DEBF0FBECDBF84
:08102000ED010895F894FFCFE3
:0810280073656E64002564008D
:00000001FF
